:020000040800F2
:10000000F805002005010008512200082B1F0008F8
:10001000BD21000813090008F528000800000000B1
:10002000000000000000000000000000C3220008E3
:100030004B09000800000000C1220008C52200088A
:100040001F0100081F0100081F0100081F01000810
:100050001F0100081F0100088D090008930900080E
:100060001F0100081F0100081F0100081F010008F0
:100070001F0100081F0100081F0100081F010008E0
:10008000150900081F0100081F0100081F010008D2
:100090001F0100081F0100081F0100081F010008C0
:1000A0001F0100081F0100081F0100081F010008B0
:1000B0001F0100081F0100081F0100081F010008A0
:1000C0001F0100081F0100081F0100081F01000890
:1000D0001F0100081F010008E92800081F0100088F
:1000E0001F0100081F0100081F010008DFF810D0E1
:1000F00000F0DCFB00480047FD310008AFF3008052
:10010000F80500200648804706480047FEE7FEE75E
:10011000FEE7FEE7FEE7FEE7FEE7FEE7FEE7FEE7B7
:1001200027230008ED000008202A04DB203A21FAEA
:1001300002F00021704721FA02F3D040C2F1200200
:100140009140084319467047D2B201E000F8012BF4
:10015000491EFBD270470022F6E710B513460A4647
:1001600004461946FFF7F0FF204610BD421C10F868
:10017000011B0029FBD1801A704730B504460020CE
:10018000034600E05B1C934203D2E05CCD5C401B65
:10019000F8D030BDF0B480EA0102D40F4200B2EBD7
:1001A000410F02D20246084611464A0042D0C30D12
:1001B000DDB2C1F3C752AD1A202D35DAC1F31601F5
:1001C00041F4000204B15242C5F1200602FA06F1E0
:1001D0002A411044B3EBD05F23D0C4B1012DA0EB72
:1001E000C35009DCF0BC4FF0004202EAC352DBB25C
:1001F00000F5000000F085B9400000F1807000EBD0
:10020000C350A0F1807040EAD170490009E049086C
:1002100041EAC071A0EBC35000F50000400800EBBC
:10022000C350F0BC00F064B96142012202EB41010D
:10023000001BF6E7F0BC704781F00041AAE780F0B0
:100240000040A7E780EA010210B502F00043400039
:1002500022D04A001FD0010E01EB1261C0F35600FC
:10026000C2F3560240F4000042F40002A0FB022058
:1002700000047F39140400D0401C50EA124001D41D
:100280004000491EC2B20C0604EBD010401C4008CE
:10029000802A02D003E0002010BD20F001000029D8
:1002A00000DA0020184310BD420005D0C0F3C75249
:1002B0005242914201DC0020704700EBC150704770
:1002C0002DE9F04D81EA030404F0004B21F00045D4
:1002D00014464FF0000A23F0004150EA050220D0F6
:1002E00054EA01021DD0C5F30A570246C5F31303B1
:1002F000C1F31300C1F30A5640F4801543F4801390
:10030000A7EB0608101BD64608F2FD3873EB050074
:1003100002D308F1010801E092185B41B8F1000F27
:1003200003DA00200146BDE8F08D00204FF4801173
:10033000064684460EE0171B73EB050705D3121B18
:1003400063EB050306434CEA010C49084FEA300011
:1003500092185B4150EA0107EDD152EA030012D036
:1003600082EA040083EA0501084305D0101BAB4173
:1003700006D20122002306E000224FF0004302E0F3
:100380006FF0010253101AEB06004CEB085110EB12
:100390000A0041EB0B01BDE8F04D00F0E0B8C10FE1
:1003A00080EAE0700844CA079623002100F0A9B84B
:1003B0000EB5C10F80EAE0700844CA07002140F280
:1003C00033438DE80E000A460B4600F0D7F803B021
:1003D00000BD00F0004220F00040C10DC0F3160047
:1003E00040F400007F2901DA00207047962903DCE1
:1003F000C1F19601C84001E096398840002AF4D046
:100400004042704700F0004230F000400AD0C10D79
:1004100001F56071C0F3160042EA0151C2084007BD
:100420001143704700200146704701F0004330B48B
:1004300021F0004150EA010206D00A0DA2F56072D7
:10044000C1F31301002A02DC30BC00207047440FC6
:1004500044EAC104C100E01830BC00EBC25000F017
:1004600047B830B50B46014600202022012409E0A0
:1004700021FA02F59D4205D303FA02F5491B04FA5D
:1004800002F52844151EA2F10102F1DC30BD2DE970
:10049000F05F0546002092469B4688460646814608
:1004A00040241BE02846414647462246FFF73CFED3
:1004B00053465A46C01A914110D311461846224657
:1004C00000F006FA2D1A67EB01084F46224601207C
:1004D000002100F0FDF917EB00094E41201EA4F1A8
:1004E0000104DFDC484631462A464346BDE8F09F1A
:1004F0000029A8BF7047401C490008BF20F0010038
:10050000704710B4B0FA80FC00FA0CF050EA010415
:1005100004BF10BC704749B1CCF1200421FA04F4A7
:1005200011FA0CF118BF012121430843A3EB0C0180
:10053000CB1D4FEA00614FEA102042BF002010BCE3
:10054000704700EBC35010440029A4BF10BC704793
:10055000401C490008BF20F0010010BC704710B5D6
:10056000141E73F1000408DA401C41F100019218D6
:100570005B411A4301D120F0010010BD2DE9F04D7F
:1005800092469B4611B1B1FA81F202E0B0FA80F2D4
:100590002032904600F09CF904460F4640EA0A00DB
:1005A00041EA0B0153465A46084313D0114653EA19
:1005B000010019D0C8F140025046FFF7B5FD0546CD
:1005C0000E4650465946424600F082F9084305D08F
:1005D000012004E020463946BDE8F08D00200543A7
:1005E00046EAE0762C4337430A986305E40AA0EB19
:1005F00008000022FD0A44EA47540A3002D50020D0
:100600000146E9E7010510196941DDE908450019CE
:100610006941BDE8F04DA2E72DE9FE4F804681EA31
:100620000300C00F0C46009021F0004123F000456C
:10063000B8EB0200A94105D24046214690461C462F
:100640000B46024623F00040104347D0270DC7F366
:100650000A00C3F30A510290401A019040286BDA55
:10066000C3F3130040F4801B0098924620B100238E
:10067000D2EB030A63EB0B0B01985946C0F1400221
:10068000504600F025F906460D4650465946019A57
:1006900000F02DF910EB08006141002487EA1152A7
:1006A00084EAE7731A4340D0009A62B3019A012AA0
:1006B0004FEA075215DC001B61EB02014FF00042CC
:1006C00002EA0752CDE90042001C41F58011324692
:1006D0002B46FFF753FF03B0BDE8F08F404621469D
:1006E000F9E7001B61EB0201001C41F580130018C3
:1006F0005B412018A2F5001747EB030140EAD570D3
:10070000B6196D4111E06D084FEA360645EAC0752D
:100710004FEA0752001B61EB0201001C41F58011FA
:1007200049084FEA30000019514132462B4603B0C8
:10073000BDE8F04FFFF713BF0098012240000023EF
:10074000D0EB020263EBE073009821464FEAE074BD
:10075000B8EB000061EB0401E9E783F000435BE7DD
:1007600081F0004158E72DE9FE4F81EA030404F0CF
:10077000004421F0004100944FF0000B23F00043AF
:1007800050EA01045ED052EA03045BD0C3F30A547A
:10079000C1F30A552C44A4F2F3340194A0FB025493
:1007A000C1F3130141F48011C3F3130343F4801325
:1007B00001FB024400FB034E840A970A44EA815479
:1007C00047EA8357A4FB076802958D0A05FB078556
:1007D0004FEA932C04FB0C542705029D4FEA065860
:1007E00047EA1637B5EB08056EEB070C870E920E3D
:1007F00047EA811742EA8312A7FB0201B6EB0B011D
:1008000064EB00042B0D43EA0C335E1844EB1C50E0
:10081000DA465146E7FB0201C5F313044FEA0B33F6
:1008200043EA14534FEA0432019C43EA0603A4F15D
:100830000C040294009CCDE900B4FFF79FFE03B0C6
:10084000BDE8F08F00200146F9E7C1F30A52C1F379
:10085000130140F2FF3341F480119A4202DA002082
:100860000146704740F233439A42A2F2334202DC1F
:100870005242FFF759BC00F02BB8000030B5041EFF
:1008800071F1000404DB4FF00044404264EB0101CD
:10089000141E73F1000405DB1C464FF00043524266
:1008A00063EB0403994208BF904230BD064C074DEC
:1008B00006E0E06840F0010394E807009847103430
:1008C000AC42F6D3FFF716FC98350008B83500089F
:1008D000202A04DB203A00FA02F100207047914000
:1008E000C2F1200320FA03F3194390407047202AF5
:1008F00006DBCB17203A41FA02F043EAE07306E048
:1009000041FA02F3D040C2F1200291400843194657
:100910007047FEE7014800F06DB90000B401002007
:1009200030B590F840500124AC40C56B6C60046851
:1009300063604368102B036803D099600068C2604D
:1009400030BD9A600068C16030BD70472DE9F0414C
:1009500000244FF47A760B4D77100DE0FFF706FC7C
:1009600082B255F824103346074801F08DFA384614
:1009700000F050FA641CE4B255F824000028EDD1D0
:10098000BDE8F081280000206C010020012000F06B
:100990009DBA022000F09ABA72B6FEE72DE9F04740
:1009A000DFF82081052208F1020147A0FFF7E5FBEF
:1009B000002859D198F80900A0F141011A2953D211
:1009C000434C0021A0F14802A1706426414FDFF89A
:1009D00008910125DFF804A16FF02F01062A6FD2DC
:1009E000DFE802F0030A212D44583DA001F084FF06
:1009F00094F90000143005E03CA001F07DFF94F96B
:100A00000000143890FBF6F106FB110041B2217092
:100A100038684163D9F800004163A570BDE8F0472C
:100A200035A001F069BF98F80A0098F80B2030381B
:100A300000EB800001EB40001044207013E098F8B8
:100A40000A0098F80B20303800EB800001EB4000E2
:100A50001044FFF7ADFC00225346FFF731FCFFF7CF
:100A6000E4FC294929E0A570BDE8F08798F80A0060
:100A700098F80B20303800EB800001EB4000104468
:100A8000FFF796FC00225346FFF71AFCFFF7CDFC58
:100A90001E4912E098F80A0098F80B20303800EB55
:100AA000800001EB40001044FFF782FC0022534617
:100AB000FFF706FCFFF7B9FC15490860D3E7FFE72D
:100AC0006070D1E7540000202B4950442C000000F6
:100AD0002400002094000020DC0000200000594089
:100AE000676561722075700A0000000067656172B9
:100AF00020646F776E0A0000647574795F637963B0
:100B00006C653A25690A00001000002014000020DE
:100B10001800002010B590F821100022022905D0FD
:100B20000421816380F82020012010BD01680B683A
:100B300023F00E030B6001680B6823F001030B60C8
:100B400090F84030C46B012101FA03F3636080F830
:100B5000211080F82020104610BD000010B590F83C
:100B600021100024022903D00421816301243DE0E7
:100B700001680A6822F00E020A6001680A6822F021
:100B800001020A601A4A0168914201D1012121E063
:100B9000174A1432914201D110211BE0144A283225
:100BA000914201D1891515E0114A3C32914201D19F
:100BB00089140FE00E4A5032914202D14FF4803135
:100BC00008E00B4A6432914202D14FF4801101E0F7
:100BD0004FF08071064A083A5160012180F82110D7
:100BE000002180F82010416B01B18847204610BDDC
:100BF000080002402DE9F05FC16B0C6801680B68CA
:100C0000D0F840C0042202FA0CF2494DDFF824A1CA
:100C1000494E4A4FDFF828B1DFF828E122422CD0B4
:100C20005A072AD50A68920603D40A6822F00402F9
:100C30000A600168A94201D1042219E0514501D19D
:100C4000402215E0B14202D14FF4806210E0B94277
:100C500002D14FF480420BE0594502D14FF480227B
:100C600006E0714502D14FF4800201E04FF080624E
:100C70002F4908394A60C16A3BE04FF0020808FA80
:100C80000CF818EA040F4FF000094FF0010235D0BC
:100C90005FEA837832D50B689B0605D40B6823F096
:100CA0000A030B6080F821200168A94201D10222C9
:100CB00019E0514501D1202215E0B14202D14FF493
:100CC000007210E0B94202D14FF400520BE05945D6
:100CD00002D14FF4003206E0714502D14FF4001208
:100CE00001E04FF00072124908394A6080F8209004
:100CF000816A00291AD0BDE8F05F0847082505FA87
:100D00000CF5254212D01B0710D50B6823F00E03FB
:100D10000B6090F84010C36B02FA01F159608263D6
:100D200080F8212080F82090016BE2E7BDE8F09F79
:100D3000080002401C000240300002404400024013
:100D4000580002406C00024030B528B308C813496F
:100D500014221944B1FBF2F18900C1631049816387
:100D6000022141771A6843F6F0718A43D0E90014F2
:100D70002143D0E902452C432143046921434469BE
:100D800021438469214311431960002141630122F9
:100D900042770177084630BD012030BDF8FFFDBF26
:100DA0000000024070B5044690F82000002501289C
:100DB0000CD0012084F8200094F821600020012E3E
:100DC00006D084F820000225284670BD022070BDA0
:100DD000022684F82160A0632068066826F00106D8
:100DE00006602046FFF79CFDE06A00282068016845
:100DF00002D041F00E0106E021F0040101602068FC
:100E0000016841F00A0101602068016841F00101B8
:100E10000160D9E770B5044600F05AF90546601C38
:100E200002D004480078044400F052F9401BA0426C
:100E3000FAD370BD400000202DE9F04100261F4F7D
:100E4000DFF87C801F4D204C01281CD0022818D1CF
:100E500000F03EF96968401A072812D36078401CF8
:100E6000C0B2607014280CD3667000F031F9696864
:100E7000401A3968B1FBF0F0A8F8020000F028F938
:100E80006860BDE8F08100F023F92968401A07285E
:100E9000F7D32078401CC0B220701428F1D32670FC
:100EA00000F016F92968401A3968B1FBF0F0A8F88B
:100EB000000000F00DF92860E3E70000E8340008C6
:100EC0000C0000200400002000000020044910B5A0
:100ED0000A68024202D00860FFF7AEFF10BD0000B2
:100EE000140401402DE9F84FDFF8B8910024A9F16E
:100EF000040B23460F2709F1040AABF1040EC9E0E5
:100F00000125A5402A40AA427DD1674ED1F804C0F0
:100F1000ACEB0608B44532D014DCBCF1030F3AD078
:100F200009DCBCF1000F2AD0BCF1010F1CD0BCF1D0
:100F3000020F31D11DE0BCF1110F17D0BCF1120F1F
:100F40002AD119E0B8F5881F19D006DCB8F5803F22
:100F500015D0B8F5801F1FD111E0B8F5001F0ED0D5
:100F6000B8F5041F18D10AE0CB6815E0CB681B1D4B
:100F700012E0CB6808330FE0CB680C330CE08B68D1
:100F80002BB1012B4FF0080303D0456104E004238B
:100F900002E0056100E00023FF2A01D8064601E0D7
:100FA00000F104064FEA840501D9A5F12005D6F821
:100FB000008007FA05FC28EA0C0803FA05F548EA60
:100FC0000508C6F800804D68ED0062D5374DAE6962
:100FD00046F00106AE61AD6924F0030605F0010597
:100FE0000095334D06EB050CDCF80850A607360FCC
:100FF00007FA06F825EA0805DFF8B880404503D16E
:101000004FF0000817E044E0DFF8AC80404502D123
:101010004FF001080FE0DFF8A480404502D14FF007
:10102000020808E0DFF89880404502D14FF003083D
:1010300001E04FF0040808FA06F848EA0508CCF881
:1010400008804D68D9F80060ED024D4601D5164381
:1010500000E096432E604D68DAF80060AD02554618
:1010600001D5164300E096432E604D68DBF8006022
:10107000AD035D4601D5164300E096432E604D68F2
:10108000DEF80060ED03754601D5164300E0964397
:101090002E60641C0D682A46E5407FF431AFBDE840
:1010A000F88F0000080401400000111000100240F9
:1010B0000000014000080140000C01400010014008
:1010C000001401400AB1016170470904FBE7000008
:1010D0000148806870470000400000200248816895
:1010E000027811448160704740000020074810B525
:1010F000016841F010010160032000F075F80F2035
:1011000000F006F800F024F8002010BD0020024096
:1011100070B50D4D04464FF47A712878B1FBF0F0AC
:101120000A490968B1FBF0F000F0DCFA48B9102C6C
:1011300007D200222146501E00F036F800206C60D5
:1011400070BD012070BD0000400000204C00002058
:101150000C4808B5816941F001018161816901F0A4
:1011600001010091C16941F08051C161C06900F085
:10117000805000900448416821F0E06141F0007126
:10118000416008BD0010024000000140002809DB5A
:1011900000F01F02012191404009800000F1E02091
:1011A000C0F8001170470000F0B40E4B1B680C46ED
:1011B000C3F30223C3F10705042D00D90425191D2B
:1011C000072901D2002300E0DB1E012606FA05F103
:1011D000491E214099409E40761E16403143F0BC86
:1011E00001F09ABB0CED00E0064900F00702086828
:1011F0004FF6FF03184040EA0220034A10430860FC
:10120000704700000CED00E00000FA052DE9F04702
:101210000F46050061D0434E306800F00700B84229
:1012200009D2306820F0070038433060306800F0A1
:101230000700B84251D128683B4C810712D54007BE
:1012400003D5606840F4E06060602878000703D54B
:10125000606840F4605060606068A96820F0F00049
:10126000084360602878C00728D06868012810D03B
:101270002168022810D0890700292EDA616821F040
:10128000030101436160FFF723FF804641F2883983
:101290000DE021688903EFE78901EDE7FFF718FF0B
:1012A000A0EB0801494502D90320BDE8F08760683A
:1012B000696800F00C00B0EB810FEFD1306800F0EE
:1012C0000700B8420BD9306820F00700384330607F
:1012D000306800F00700B84201D00120E5E7287827
:1012E000400705D56068E96820F4E0600843606065
:1012F0002878000706D56068296920F4605040EA24
:10130000C100606000F038F86168084AC1F3031159
:10131000515CC8400649086006480068FFF7F8FEBF
:101320000020C2E70020024000100240FE34000806
:101330004C0000204400002004480549006849682A
:10134000044AC1F30221515CC84070474C000020A0
:10135000001002400E35000804480549006849683D
:10136000044AC1F3C221515CC84070474C000020C0
:10137000001002400E3500080E4A51680E4801F078
:101380000C03042B11D0082B0FD10C48C1F383435D
:10139000C903C05C0AD55168084AC1F34041921E96
:1013A000515C054A5043B0FBF1F070470449484393
:1013B000704700000010024000127A00EE3400086E
:1013C00000093D002DE9F84F040070D02078C04D91
:1013D000C00749D06868C0F38100012807D0686859
:1013E000C0F38100022809D16868C00306D52868C7
:1013F000800339D560680028E7D035E06068B0F533
:10140000803F0BD010B1B0F5A02F11D0286820F488
:1014100080302860286820F4802002E0286840F4AA
:1014200080302860606890B1FFF752FE06460AE0FF
:10143000286840F480202860F0E700BFFFF748FEEE
:10144000801B642873D828688003F7D50CE0FFF769
:101450003FFE064605E000BFFFF73AFE801B64280A
:10146000F0D828688003F7D420789A4E80074FF090
:1014700001094FF0000839D5686810F00C0F07D04B
:101480006868C0F38100022809D16868C00306D4E7
:101490002868800714D52069012808D110E0206948
:1014A000B0B1C6F80090FFF713FE074605E00AE169
:1014B000FFF70EFEC01B0228C4D828688007F7D5A6
:1014C0002868616920F0F80040EAC10028600DE05A
:1014D000C6F80080FFF7FCFD074604E0FFF7F8FDC3
:1014E000C01B022823D828688007F7D4207800077B
:1014F0002CD57948A169D9B1C0F80090FFF7E8FD73
:10150000074604E0FFF7E4FDC01B02280FD8686A15
:101510008007F7D571484FF4FA510068B0FBF1F03D
:10152000009000BF0098411E0091FAD20EE080E0CA
:10153000C0F80080FFF7CCFD074604E0FFF7C8FDC8
:10154000C01B022875D8686A8007F7D42078400746
:1015500060D5E8690027C00008D4E86940F08050F1
:10156000E861E869012700F0805000905C4801685C
:10157000C90513D40168834641F480710160FFF707
:10158000A7FD824606E000BFFFF7A2FDA0EB0A0020
:1015900064284ED8DBF80000C005F5D5E0680128C6
:1015A0000AD008B1052813D0286A20F0010028626B
:1015B000286A20F0040002E0286A40F00100286256
:1015C000E06841F2883B98B1FFF782FD82460BE06C
:1015D000286A40F004002862EEE700BFFFF778FDBC
:1015E000A0EB0A0159455AD8286A8007F6D50CE0C5
:1015F000FFF76EFD824605E0FFF76AFDA0EB0A01EA
:1016000059454CD8286A8007F6D41FB1E86920F004
:101610008050E861E06988B36968C1F381010229FB
:1016200044D00228C6F8608004D0FFF751FD04467C
:1016300038E034E0FFF74CFD074604E0FFF748FDD3
:10164000C01B02282BD828688001F7D4206AB0F587
:10165000803F05D16868A16820F4003008436860C5
:10166000D4E908010843696821F4741108436860EB
:10167000C6F86090FFF72CFD044606E025E000BFA9
:10168000FFF726FD001B022809D828688001F7D53E
:101690001BE000BFFFF71CFD001B022802D903203E
:1016A000BDE8F88F28688001F4D40EE00128F7D057
:1016B0006868226A00F48031914204D1616A00F4C2
:1016C0007010884201D00120EAE70020E8E700001E
:1016D0000010024000004242800442424C000020C0
:1016E0000070004010B5401EB0F1807F01D3012092
:1016F00010BD4FF0E02460610F21601701F00CF97C
:101700000020A06107202061002010BD10B590F8D6
:101710003C20012A22D0012280F83C20CA688C6833
:1017200022F4407222434C6822F4806222430C6807
:1017300022F4006222430C6922F4805222434C6955
:1017400022F400522243C969002322F480420A4352
:1017500001684A6480F83C30002010BD022010BDB2
:1017600070B590F83C20012A26D0012480F83C4036
:10177000022280F83D2003685A689D6822F07006B6
:101780000A6832435A600D4B02689A4208D0B2F19F
:10179000804F05D00A4B9A4202D00A4B9A4204D19C
:1017A000496825F080031943916080F83D4000218D
:1017B00080F83C10084670BD022070BD002C01402E
:1017C000000400400008004010B586B000210091E0
:1017D000019102910391124C0368124902221248AE
:1017E000A34209D18B6943F004038B61896901F03D
:1017F0000401049181150BE0B3F1804F0ED18B6988
:1018000043F004038B61896901F004010491012113
:10181000CDE9001269460392FFF764FB06B010BDE4
:10182000002C0140001002400008014070B5044641
:1018300090F83C0000260D4601280FD0012084F8C6
:101840003C006AB1042A1DD0082A2FD00C2A3FD0B0
:101850000126002084F83C00304670BD022070BD97
:10186000206800F0ABFD2068816941F008018161CA
:101870002068816921F004018161206881692A69F9
:10188000114311E0206800F0C1FD2068816941F436
:10189000006181612068816921F480618161206833
:1018A00081692A6941EA02218161D2E7206800F05A
:1018B000D9FD2068C16941F00801C1612068C16992
:1018C00021F00401C1612068C1692A69114311E056
:1018D000206800F0F3FD2068C16941F40061C16136
:1018E0002068C16921F48061C1612068C1692A69E9
:1018F00041EA0221C161ACE710B5040003D094F8BD
:101900003D0010B107E0012010BD002084F83C002C
:10191000204600F01FF8022084F83D00211D2068B9
:1019200000F002FD012084F8460084F83E0084F8AF
:101930003F0084F8400084F8410084F8420084F8B5
:10194000430084F8440084F8450084F83D000020FA
:1019500010BD000008B50C4A01680C48914207D13F
:10196000816941F400618161806900F4006009E0EF
:10197000B1F1804F07D1C16941F00101C161C06976
:1019800000F00100009008BD002C01400010024052
:1019900010B50446022249B104290ED0082913D0FB
:1019A00094F84100012816D0012010BD94F83E00A3
:1019B0000128F9D184F83E200FE094F83F00012877
:1019C000F2D184F83F2008E094F840000128EBD1E0
:1019D00084F8402001E084F841200122206800F0D2
:1019E000DFFC0F492068884203D1426C42F4004278
:1019F00042642068884208D0B0F1804F05D0094980
:101A0000884202D00849884204D1816801F0070168
:101A1000062903D0016841F001010160002010BDDA
:101A2000002C0140000400400008004038B5044686
:101A300090F84200202801D0022038BD51B14AB1AF
:101A40000120206300206063204600F0CBFE216B64
:101A5000012901D0012038BD21680A684968009138
:101A600021680C3151E8002F42F0100241E80023B8
:101A7000002BF5D138BD000010B50068094A90422E
:101A80000ED10A4664230849084800F0FDF9FEF724
:101A900085FFBDE81040402203490548FFF7C6BF57
:101AA00010BD00000044004054000020240100202C
:101AB0006C01002070470000F8B501680446086812
:101AC000CA684B6910F00F0F4FF0000559D003F0B2
:101AD000010602F49077374365D0C10705D0D105E0
:101AE00003D5616C41F001016164410705D5D90757
:101AF00003D0616C41F002016164810705D5D9070B
:101B000003D0616C41F004016164010707D502F064
:101B10002001314303D0616C41F008016164616CC4
:101B200000293AD0800604D5900602D5204600F060
:101B30009BFD20684069616CC0F38010090700D4E8
:101B400060B3204600F05BFD20684069400621D567
:101B50002068143050E8001F21F0400140E80012D6
:101B6000002AF5D1E06BA8B16D494163E06BFEF747
:101B7000F5FF002811D0E06B416B01B0BDE8F040EB
:101B8000084783060FD593060DD52046BDE8F840DB
:101B900000F06ABD2046FFF78DFFF8BD2046FFF735
:101BA00089FF6564F8BD266B2023012E7CD1C60613
:101BB0007AD5D60678D508684868009048694FF00D
:101BC0000206400640D5E16B086840680004000C3E
:101BD000E8D0A28D8242E5D9E085886920282DD001
:101BE00020680C3050E8001F21F4807140E800129A
:101BF000002AF5D12068143050E8001F21F00101BF
:101C000040E80012002AF5D12068143050E8001F87
:101C100021F0400140E80012002AF5D184F842305A
:101C2000256320680C3050E8001F21F0100140E8C7
:101C30000012002AF5D1E06BFEF76CFF6663A08D01
:101C4000E18D401A81B22AE0A08DE18D401A81B267
:101C5000E08D0028A6D00029A4D022680C3252E8DA
:101C6000000F20F4907042E80007002FF5D12068A3
:101C7000143050E8002F22F0010240E80027002F26
:101C8000F5D184F84230256320680C3050E8002FED
:101C900022F0100240E80023002BF5D166632046B5
:101CA000FFF7EAFEF8BDFFE705062BD5150629D597
:101CB00094F841002128F5D1A068B0F5805F01D1EA
:101CC0002069B0B1206A411C216221680078486017
:101CD000E08C401E0004000CE084E3D12068C16861
:101CE00021F08001C1602068C16841F04001C160FD
:101CF000D8E7206A0088C0F308004860206A801C8A
:101D00002062E5E74006CDD55006CBD5CA6820460F
:101D100022F04002CA6084F8413000F005F9C1E7C2
:101D20000125000870B5040004D094F84100002596
:101D300010B106E0012070BD84F84050204600F04C
:101D400023F8242084F841002068C16821F4005160
:101D5000C160204600F0EAFC2068016921F490414E
:101D600001612068416921F02A0141612068C16850
:101D700041F40051C1606564202084F8410084F87A
:101D800042006563002070BDF0B585B0002400946A
:101D90000194029403940646344F036834490222A6
:101DA0000320344DBB4221D18B6943F480438B61C6
:101DB0008B6903F4804304938B6943F004038B61C4
:101DC0008969039001F0040104911102CDE9001228
:101DD00069462846FFF786F82815CDE900046946CC
:101DE00028460294FFF77EF805B0F0BD224FBB42B3
:101DF000FAD1CB6943F40033CB61CB6903F40033F0
:101E000004938B6943F004038B618969039001F0AB
:101E1000040104910421CDE9001269462846FFF728
:101E200061F80820CDE90004694628460294FFF7CE
:101E300059F8134D1148C5E900048020C5E9024056
:101E40002C616C61AC612846EC61FEF77DFF08B146
:101E5000FEF7A2FDF5630022114626206E62FFF711
:101E6000A3F92620FFF792F9BEE7000000380140F1
:101E70000010024000080140004400406C00024095
:101E8000B4010020704770472DE9F843044690F8EC
:101E90004100984616460D46202802D00220BDE893
:101EA000F88385B17EB100206064212084F8410070
:101EB000FFF70EF9A6848146E684A0682027B0F5D6
:101EC000805F02D003E00120E9E7206910B12E46CF
:101ED00000250EE000260CE08021204600F0CAFC20
:101EE000A8B9C6B116F8010B21684860E08C401E05
:101EF000E084E08C4B464FF00002CDF800800028D3
:101F0000EAD14FF04001204600F0B4FC40B184F823
:101F100041700320C3E735F8020BC0F30800E3E784
:101F200084F841700020BAE77047FEE7094808B519
:101F3000416941F0010141614069002200F0010066
:101F4000009011461020FFF72FF9BDE8084010203F
:101F5000FFF71CB9001002402DE9F04385B00024C2
:101F600032480094019402940394816941F0100175
:101F70008161816901F010010491816941F02001C2
:101F80008161816901F020010491816941F00401BE
:101F90008161816901F004010491816941F00801C6
:101FA00081618069DFF8888000F0080048F2100540
:101FB0000490002229464046FFF784F8DFF8749029
:101FC0004FF46047002239464846FFF77BF80095FA
:101FD000022601250396CDE9015469464046FEF7E5
:101FE00081FF032000901448CDE901056946484669
:101FF000FEF778FF00970396CDE9015469464846FD
:10200000FEF770FF002211460620FFF7CDF80620EC
:10201000FFF7BCF8002211460720FFF7C5F807209C
:10202000FFF7B4F805B0BDE8F083000000100240EF
:1020300000080140000C01400000211010B592B0D2
:1020400000240F941C2108A81094FEF784F8202186
:102050006846FEF780F820481E4901604721C0E924
:1020600001146421C0E903148021C0E90541FFF790
:1020700043FC08B1FEF790FC0F940FA9164810948A
:10208000FFF76EFB08B1FEF787FC6020CDE908047E
:102090000A940B940C940D94002208A90E480E94F7
:1020A000FFF7C4FB08B1FEF777FC00944FF4005033
:1020B000CDE90440029401940394694606480794CC
:1020C000FFF724FB08B1FEF767FC0348FFF77CFB32
:1020D00012B010BD002C01409400002010B58AB051
:1020E000002407941C2168460894FEF734F816482B
:1020F0004FF0804101604721C0E901146421C0E92B
:10210000031480218161FFF7F7FB08B1FEF744FC5F
:10211000079407A90C480894FFF722FB08B1FEF7C3
:102120003BFC6020CDE90004029400226946064889
:102130000494FFF77BFB08B1FEF72EFC0248FFF783
:1021400043FB0AB010BD0000DC0000200C4810B5B5
:102150000A4901604FF4E1314160002181600C22A5
:10216000C160C0E904128161C161FFF7DBFD002895
:1021700003D0BDE81040FEF70FBC10BD0038014091
:10218000240100200C4810B50A4901604FF4E131E8
:102190004160002181600C22C160C0E904128161AC
:1021A000C161FFF7BFFD002803D0BDE81040FEF776
:1021B000F3BB10BD004400406C010020FEE70000AE
:1021C00010B50122D1030548FEF77CFFBDE81040A1
:1021D00000224FF400510248FEF774BF000801408E
:1021E000000C014010B500224FF400410448FEF7F6
:1021F00069FF0122BDE8104051030248FEF762BFAB
:1022000000080140000C014010B5074C00224FF4BB
:1022100080412046FEF756FF20460122BDE81040CF
:10222000D103FEF74FBF0000000C014010B5074C72
:10223000012291032046FEF745FF2046BDE81040ED
:1022400000224FF40041FEF73DBF0000000C0140AA
:10225000FEE700002DE9F041164C06460121E0683A
:102260000546FEF721F83146FDF7E9FF2169FDF744
:1022700091FFA168FDF7E6FF074630466168FDF76C
:10228000E1FF804629463046FDF7D6FF2168FDF77D
:10229000D9FF4146FDF77EFF3946FDF77BFFC4E9D4
:1022A00003650549884202D80449884200DD084692
:1022B000BDE8F08110000020000070C100007041F6
:1022C00070477047FEF70ABF30B58FB028216846C7
:1022D000FDF741FF14210AA8FDF73DFF0121080485
:1022E000CDE900100024029402250491CDE90750A5
:1022F0004FF4E01009906846FFF764F808B172B631
:10230000FEE70F20CDE90A054FF48060CDE90C40CF
:1023100002210AA80E94FEF779FF002801D072B6B8
:10232000FEE70FB030BD7047F0B50268194B1A4C8C
:102330001A4D4FF08047984205D0B84203D0A042D2
:1023400001D0A84203D122F070064A683243984275
:1023500005D0B84203D0A04201D0A84203D122F454
:102360004074CA6822434C6922F080022243026012
:102370008A68C2620A688262984201D1096901636F
:10238000012141610169C90703D0016921F00101FF
:102390000161F0BD002C0140000400400008004035
:1023A00010B501F01F030121046A99408C430462B7
:1023B000016A9A401143016210BD000030B5036A02
:1023C000026A22F0010202624268846924F0730505
:1023D0000C682C4323F002058B682B430A4DA8425E
:1023E0000BD123F00805CB6822F440722B434D69D2
:1023F00023F0040315438A692A43426084614968D3
:102400004163036230BD0000002C014030B5026A18
:10241000036A23F010030362436884690D6824F49F
:10242000E64444EA05248D6822F0200242EA0512BF
:102430000B4DA8420ED1CD6822F0800242EA05126F
:102440004D6923F4406343EA85038D6922F040021D
:1024500043EA85034360846149688163026230BD59
:10246000002C014030B5036A026A22F480720262D5
:102470004268C46923F4007324F073050C682C438C
:102480008D6843EA05230C4DA8420ED1CD6823F494
:10249000006343EA05234D6922F4405242EA0512E3
:1024A0008D6923F4806342EA05124260C461496881
:1024B000C163036230BD0000002C014030B5046AE6
:1024C000026A22F4805202624268C3690D6823F4F2
:1024D000E64343EA05238D6824F4005444EA0534B6
:1024E000064DA84204D14D6922F4804242EA851289
:1024F0004260C36149680164046230BD002C014040
:1025000010B5406A0021C185C184FFF7D3FA10BD20
:1025100070B5446A2068406994F84110C0F3C01057
:102520000025212904D118B1E584204600F08EF859
:102530002068406994F84210C0F38010222904D129
:1025400018B1E585204600F05AF8606C40F01000A4
:1025500060642046FFF7AEFA70BD10B50146406AD0
:10256000096809684FF0000289062ED4C285016807
:102570000C3151E8003F23F4807341E80034002C13
:10258000F5D10168143151E8003F23F0010341E81F
:102590000034002CF5D10168143151E8003F23F0DC
:1025A000400341E80034002CF5D1202180F842108E
:1025B000016B012909D101680C3151E8003F23F07A
:1025C000100341E80034002CF5D14263016B01296E
:1025D00002D0FFF757FC10BD818DFFF74DFA10BDFB
:1025E00010B5406A01214163016B012902D0FFF758
:1025F0004AFC10BD818D4908FFF73EFA10BD016805
:102600000C3151E8002F22F4907241E80023002B96
:10261000F5D10168143151E8002F22F0010241E8A0
:102620000023002BF5D1016B012909D101680C3180
:1026300051E8002F22F0100241E80023002BF5D1D1
:10264000202180F8421000210163704701680C319D
:1026500051E8002F22F0C00241E80023002BF5D101
:10266000202180F84110704708B590F842102229C7
:1026700001D0022008BD82684FF480539A4201D1F4
:10268000016921B1816A9A421BD04AB10AE002680D
:10269000816A5268C2F308020A80816A891C08E0D4
:1026A000026972B10268526802F07F020A70816AA0
:1026B000491C8162C18D491E0904090CC18503D0E2
:1026C0001BE002685268F1E70168CA6822F0200244
:1026D000CA600168CA6822F48072CA6001684A69E7
:1026E00022F001024A61202180F84210002141635A
:1026F000026B012A03D0FFF7C5FB002008BD016370
:1027000001680C3151E8002F22F0100241E800234B
:10271000002BF5D101680A68D20602D50A6849681B
:102720000091818DFFF7A8F9E7E7000070B5044636
:1027300000680169E26821F4405111430161216997
:10274000A0680843616908432168CA6841F20C63C4
:102750009A430243CA6020684169A26921F440712A
:10276000114341611E492068884202D1FEF7F4FD01
:1027700001E0FEF7E1FD00EBC00101EB0012606833
:1027800064218000B2FBF0F3B3FBF1F36FF01806A5
:102790007343B2FBF0F5B2FBF0F605EB8305322391
:1027A00003EB0515B5FBF1F5B6FBF1F605F0F00509
:1027B00005EB0615B2FBF0F6B2FBF0F0B0FBF1F062
:1027C0006FF01802504306EB800003EB0010B0FBE3
:1027D000F1F0216800F00F002844886070BD00000F
:1027E0000038014038B581620446828500201346D6
:1027F0006064222284F84220E56B1B4AAA62E56BE2
:102800001A4AEA62E56B1A4A2A63E26B50630A4687
:102810002168E06B091DFEF7C5FA20680168406871
:102820000090206948B120680C3050E8001F41F446
:10283000807140E80012002AF5D12068143050E879
:10284000001F41F0010140E80012002AF5D1206884
:10285000143050E8001F41F0400140E80012002A07
:10286000F5D1002038BD00005B250008E1250008F7
:10287000112500082DE9F843984617460D460446F1
:10288000089E24E0701C22D0FEF722FCA0EB08007A
:10289000B0421AD8CEB12068C168490717D5802D3B
:1028A00015D0402D13D00168C94309070FD4016822
:1028B0000025406800902046FFF7A1FE08206064D4
:1028C00084F840500120BDE8F8830320FBE720682E
:1028D000006835EA000004D00020B842D2D00020C1
:1028E000F1E70120F9E700000148FFF7E5B8000033
:1028F0006C010020FEE700000FB4054B10B503A9E2
:10290000044A029800F0EAF810BC5DF814FB0000DD
:10291000E5310008500000200907090E002804DBFB
:1029200000F1E02080F80014704700F00F0000F183
:10293000E02080F8141D704702E008C8121F08C18B
:10294000002AFAD170477047002001E001C1121F30
:10295000002AFBD1704700002DE9FF5F82B0002103
:10296000DDE90430020DDDF840B0034318D044F631
:102970001050A2F2FF3242431514119801281FD0C3
:10298000A5EB0B00401C5FEA000A4FF000064E4F1B
:10299000DFF83891B046504615D5CAF1000413E06F
:1029A000119801244AA3012801D16FEA0B01029872
:1029B000119AC0E90031C0E9024206B0BDE8F09FBB
:1029C000CBF10000DFE704460021404A491842EB02
:1029D0000450CDE9001012E0E00707D032463B4634
:1029E00040464946FDF7BFFE8046894632463B4693
:1029F00010461946FDF7B7FE06460F466410002C38
:102A0000EAD1DDE90401DDE90023BAF1000F06DABD
:102A1000FDF7A9FE42464B46FDF7A5FE05E0FDF792
:102A20004FFC42464B46FDF74BFC04460E46002247
:102A3000284BFDF723FF03D84FF0FF30014607E096
:102A40000022254B20463146FDF7E6FDFDF7FDFE51
:102A5000102409E0002C0ADB0A220023FDF717FDF1
:102A6000039B30321A55641E50EA0102F2D1641CF5
:102A7000039AC4F111031444119A012A03D00122CC
:102A800008430DD10AE0084304D000204FF0110B99
:102A9000119072E7A3EB0B056D1E0DE05B4504DDA5
:102AA0004FF0000205F1010504E003DA4FF00002E7
:102AB000A5F10105002AECD002981199C0E9023174
:102AC000C0E9004579E70000000014400000F03F35
:102AD000300000000000F0430000E03F2DE9FF4F10
:102AE00095B09A46884606460025EEE1252877D11E
:102AF00000242746F94A0121039400E0044316F814
:102B0000013F203B01FA03F01042F7D130782A2828
:102B100011D06FF02F033078A0F13002092A16D8B7
:102B2000039A44F0020402EB820203EB42021044D7
:102B3000761C0390EFE758F8042B0392002A03DA7F
:102B4000504244F40054039044F00204761C307860
:102B50002E2816D116F8010F44F004042A280DD0AF
:102B60006FF02F023078A0F13003092B09D807EB62
:102B7000870302EB4303C718761CF3E758F8047B7E
:102B8000761C30786C280FD006DC4C2817D06828CB
:102B90000DD06A2814D104E0742810D07A280FD1FF
:102BA0000DE044F400140AE044F4801401E044F41D
:102BB00040147278824202D104F58014761C761C8F
:102BC000307866280BD013DC582877D009DC002831
:102BD00075D04528F6D04628F4D047281AD193E17D
:102BE00018E0632835D0642879D0652812D18BE1AC
:102BF000702873D008DC6728F1D069286FD06E2860
:102C00000DD06F2806D1ACE073282CD0752874D075
:102C1000782853D05246179990476D1C54E1C4F35D
:102C20000250022809D003280DD0D8F8001004283B
:102C30000DD00D6008F1040846E1D8F80010EA173D
:102C4000C1E90052F6E7D8F800100D80F2E70D70E8
:102C5000F0E718F8041B8DF8001000208DF8010033
:102C6000EB46012003E058F804BB4FF0FF3061074A
:102C70004FF0000102D40DE009F101018946B9428B
:102C80000FDA8145F8DB1BF809100029F4D108E0C0
:102C900009F1010189468142FADB1BF8091000297C
:102CA000F6D103985346A0EB090721463846179AF8
:102CB00000F080FA284400EB090507E044E008E151
:102CC0000DE01BF8010B524617999047B9F1010925
:102CD000F7D2534621463846179AF2E039E00A21E6
:102CE000C4F302524FF0000B0091022A06D058F8AC
:102CF000040BC117032A09D00AE023E008F10700FA
:102D000020F00702F2E80201904605E000B2C11788
:102D1000042A01D140B2C117002906DA0A4600216F
:102D2000404261EB02012D2202E0220504D52B2254
:102D30008DF80420012203E0E20701D02022F7E70A
:102D4000914657E00A2100E010214FF0000B00915E
:102D50000BE010214FF0000B44F004040827009111
:102D600003E008204FF0000B0090C4F30252022A47
:102D700005D058F8040B0021032A08D008E008F118
:102D8000070020F00702F2E80201904603E080B25B
:102D9000042A00D1C0B24FF0000922072AD53278A8
:102DA000702A07D0DDF800C08CF0100C5CEA0B0C28
:102DB00005D00EE040228DF80420012208E050EA00
:102DC000010306D030238DF804308DF8052002224F
:102DD0009146009B83F0080353EA0B030AD150EAA3
:102DE000010201D1620705D530228DF804204FF091
:102DF00001097F1E3278582A04D039A20C920CAAFD
:102E000002920BE03BA2F9E75B46009AFDF73FFB1D
:102E10000C9B9B5C029A521E0292137050EA0102B4
:102E2000F2D1029804A9081A00F1200B600702D51C
:102E300024F4803400E001275F4502DDA7EB0B009E
:102E400000E0002000EB0B01009003984944401A79
:102E50000390E00306D453462146179A039800F0E6
:102E6000A9F90544002706E001A85246C05D17995C
:102E700090476D1C7F1C4F45F6DBE0030CD5534695
:102E80002146179A039800F095F9054404E0302094
:102E90005246179990476D1C0099481E00900029D2
:102EA000F5DC08E00298029952460078491C02912C
:102EB000179990476D1CBBF10001ABF1010BF1DCE0
:102EC0005BE100F065F90544761C307800287FF45A
:102ED0000DAE19B02846BDE8F08F000009280100AA
:102EE0003031323334353637383961626364656680
:102EF0000000000030313233343536373839414242
:102F00004344454600000000600700D4062708F14E
:102F1000070020F00700F0E80223804603F0004C91
:102F20005FEA0C0001D097A009E0200501D596A02A
:102F300005E0E00701D095A001E0AFF24C0013904E
:102F4000307823F0004365280CD006DC452809D0F2
:102F500046281DD047287FD13BE0662818D0672837
:102F60007AD136E00021112F01DB112000E0781C1E
:102F7000CDE9000104A90CA8FFF7EEFCDDE90D0185
:102F80000C9A4FF0000B07F10109109200914EE0EE
:102F90004FF000400097CDE9011004A90CA8FFF7FD
:102FA000DBFCDDE90D020C9B0F994FF0000B914605
:102FB0001093009211B9791C00EB0109B7EB0900DD
:102FC00003D4C0F1FF3B07F10109A9EB0700019011
:102FD00042E0012F00DA01270021112F01DD11202D
:102FE00000E03846CDE9000104A90CA8FFF7B4FCC5
:102FF000DDE90D010C9A00914FF0000BB9461092DB
:1030000021070FD4009A4A4503DA914601E0A9F15D
:103010000109B9F1010F05DD109AA9F10101515C17
:103020003029F4D0B84202DA10F1040F03DA01219A
:10303000CDE9011010E0002803DC8344A9EB000176
:1030400002E0411C494500DD8946A0EB0B00401C15
:1030500001904FF000400290200705D401984845A8
:1030600002DB4FF0FF30019000208DF84B000298FA
:103070000DF14B07B0F1004F25D002200C902B2012
:103080000D90029800280CDA404202902D200D90FD
:1030900007E00A210298FDF7E4F93031029007F8C1
:1030A000011D0C99481E0C900029F2DC02980028A2
:1030B000EFD1791E0D980870307800F0200040F0B4
:1030C000450007F8020D11A8C01BC01D02901398FF
:1030D000007800B1012000EB0901019801EBE071DB
:1030E000029801440398401A401E0390E00306D45E
:1030F00053462146179A039800F05CF8054413984C
:10310000007818B15246179990476D1CE00323D5FB
:1031100053462146179A039800F04CF805441BE0EB
:10312000BBF1000F07DB0098584504DD1098179994
:1031300010F80B0001E01799302052469047019893
:103140000BF1010B401E05F10105019004D12E2069
:103150005246179990476D1CB9F10001A9F1010978
:10316000DEDC05E017F8010B5246179990476D1CFD
:103170000299481E02900029F4DC53462146179A12
:1031800003989EE62D0000002B00000020000000A8
:103190002DE9F041044600251E461746880404D454
:1031A00005E039462020B0476D1C641EF9D528463D
:1031B000BDE8F0812DE9F041044600251E46904609
:1031C000C80301D5302700E02027880404D505E096
:1031D00041463846B0476D1C641EF9D52846BDE807
:1031E000F081000013B54FF0FF3301226946024819
:1031F000FEF74AFE00981CBD2401002088B0FDF7B0
:1032000075FFFFF761F8FEF7A7FEFEF78FFEFEF7EA
:1032100015FFFEF7B7FFFEF799FFFEF75FFFFDF71B
:1032200095FB40227A497B48FEF700FC00217A4852
:10323000FEF7AEFB00217948FEF7AAFBDFF8E0813C
:10324000DFF8E0A1DFF8E0B1734E744FDFF8DC91F6
:10325000774C0125A0780028FCD16078412813D054
:10326000316894F900004863B8F80010B8F802001B
:10327000081AFDF794F8FEF7EDFFFDF7AAF894F9A8
:1032800000100844396848636078413807284AD2FA
:10329000DFE800F004114B7D868FA500002210218D
:1032A0004846FDF70FFF63A0FFF726FB4FF07E5166
:1032B000CAF8001037E0002210214846FDF702FF4F
:1032C000316894F900004863B8F80010B8F80200BB
:1032D000081AFDF764F8FEF7BDFFFDF77AF894F9D8
:1032E0000010084439684863FEF77CFFFEF79EFF34
:1032F000012210214846FDF7E5FEDAF80000FDF74F
:1033000081F8CDE90201DBF80000FDF77BF8CDE99B
:1033100000014B480068FDF775F802460B4649A0CE
:10332000FFF7EAFA23E0A57094E7DAF80000FDF76A
:1033300069F8CDE90110DBF80000FDF763F80690AD
:103340003F4800910068FDF75DF80B460199039135
:10335000009A0699CDE9001202463AA0FFF7CCFA8E
:103360003868426B3068416B3DA0FFF7C5FAB8F88A
:103370000220B8F800103FA0FFF7BEFAB8F800101E
:10338000B8F80200091A41A0FFF7B6FACBE794F9A2
:103390000000316800EBD070401048633EA033E07D
:1033A00094F90000396800EBD070401048633FA0EA
:1033B0002AE0002210214846FDF784FE316894F986
:1033C0000000486339684863FEF7FAFEFEF72EFFF7
:1033D000012210214846FDF775FE39A014E00022B5
:1033E00010214846FDF76EFE316894F900004863ED
:1033F00039684863FEF7F6FEFEF706FF012210214A
:103400004846FDF75FFE33A0FFF776FA8BE7000032
:10341000540000206C01002094000020DC000020FB
:103420000C000020180000201400002000080140BB
:103430002400002053544154455F53544F500A0018
:10344000100000204B703A2025662C204B693A2052
:1034500025662C204B643A2025660D0A00000000EA
:1034600064757479204C3A2025642C20523A20252A
:10347000640D0A004C2E52504D3A2025642C2052E7
:103480002E52504D3A2025640D0A00004C202D206C
:10349000523A2025640D0A0053544154455F545557
:1034A000524E5F4C4546540A0000000053544154AC
:1034B000455F5455524E5F52494748540A00000038
:1034C00053544154455F524F544154455F4C454617
:1034D000540A000053544154455F524F54415445DF
:1034E0005F52494748540A0060EA000001020203A3
:1034F0000405060708090A0B0C0D0E0F101000003A
:103500000000000000000102030406070809000093
:10351000000001020304000041542B43495053545E
:103520004152543D22554450222C223139322E3101
:1035300036382E342E31222C383038302C38303872
:10354000302C300D0A00000041542B4349504D559A
:10355000583D300D0A00000041542B43574D4F4455
:10356000453D320D0A00000041542B435753415052
:103570003D224361725F415032222C22313233347A
:1035800035363738222C312C330D0A0041542B525A
:1035900053540D0A00000000B83500080000002058
:1035A00054000000382900080C36000854000020A0
:1035B000A4050000482900080000000000000000E9
:1035C00000000000000000000000000000000000FB
:1035D00000000000000000000000000000410100A9
:1035E000583500088C350008683500084835000853
:1035F0001835000800000000010000001000000065
:0C3600000000000000127A000000000032
:04000005080000ED02
:00000001FF
