:020000040800F2
:10000000D80500200501000895190008A71600086A
:1000100001190008C5010008CD1F000800000000FC
:100020000000000000000000000000009919000816
:10003000FF01000800000000971900089B19000844
:100040001F0100081F0100081F0100081F01000810
:100050001F0100081F0100081F0100081F01000800
:100060001F0100081F0100081F0100081F010008F0
:100070001F0100081F0100081F0100081F010008E0
:10008000C90100081F0100081F0100081F01000826
:100090001F0100081F0100081F0100081F010008C0
:1000A0001F0100081F0100081F0100081F010008B0
:1000B0001F0100081F0100081F0100081F010008A0
:1000C0001F0100081F0100081F0100081F01000890
:1000D0001F0100081F010008C11F00081F010008C0
:1000E0001F0100081F0100081F010008DFF810D0E1
:1000F00000F056F8004800479D210008AFF300804B
:10010000D80500200648804706480047FEE7FEE77E
:10011000FEE7FEE7FEE7FEE7FEE7FEE7FEE7FEE7B7
:10012000FD190008ED000008D2B201E000F8012B33
:10013000491EFBD270470022F6E710B513460A4667
:1001400004461946FFF7F0FF204610BD421C10F888
:10015000011B0029FBD1801A704730B504460020EE
:10016000034600E05B1C934203D2E05CCD5C401B85
:10017000F8D030BD30B50B460146002020220124C6
:1001800009E021FA02F59D4205D303FA02F5491B65
:1001900004FA02F52844151EA2F10102F1DC30BD7B
:1001A000064C074D06E0E06840F0010394E80700C4
:1001B00098471034AC42F6D3FFF79CFF2024000888
:1001C00040240008FEE70000014800F011B90000DB
:1001D0009001002030B590F840500124AC40C56B30
:1001E0006C60046863604368102B036803D09960F7
:1001F0000068C26030BD9A600068C16030BD704761
:100200002DE9F04100244FF47A760B4D77100DE084
:10021000FFF79CFF82B255F824103346074801F0DF
:10022000F1F9384600F0F4F9641CE4B255F8240002
:100230000028EDD1BDE8F081040000204801002035
:1002400072B6FEE72DE9F0471F4D0522A91C1FA03D
:10025000FFF783FF002817D1687AA0F141011A291E
:1002600012D21C4C0021A94664251B4E1B4FA170C5
:100270004FF00108482809D049280ED018A001F0F5
:10028000A7FE99F809006070BDE8F08716A001F09C
:100290009FFE94F90000143005E016A001F098FECE
:1002A00094F90000143890FBF5F105FB110041B200
:1002B0002170306841633868416384F80280BDE88A
:1002C000F0470FA001F084BE300000202B495044BD
:1002D0002C0000000000002070000020B80000206A
:1002E000412D470A00000000676561722075700AA1
:1002F000000000006765617220646F776E0A00007D
:10030000647574795F6379636C653A25690A0000E6
:1003100010B590F821100022022905D00421816334
:1003200080F82020012010BD01680B6823F00E0327
:100330000B6001680B6823F001030B6090F84030FC
:10034000C46B012101FA03F3636080F8211080F887
:100350002020104610BD000010B590F82110002498
:10036000022903D00421816301243DE001680A6869
:1003700022F00E020A6001680A6822F001020A6097
:100380001A4A0168914201D1012121E0174A143231
:10039000914201D110211BE0144A2832914201D12F
:1003A000891515E0114A3C32914201D189140FE0C0
:1003B0000E4A5032914202D14FF4803108E00B4A8C
:1003C0006432914202D14FF4801101E04FF080710C
:1003D000064A083A5160012180F82110002180F876
:1003E0002010416B01B18847204610BD0800024033
:1003F0002DE9F05FC16B0C6801680B68D0F840C054
:10040000042202FA0CF2494DDFF824A1494E4A4F6A
:10041000DFF828B1DFF828E122422CD05A072AD58C
:100420000A68920603D40A6822F004020A6001688E
:10043000A94201D1042219E0514501D1402215E021
:10044000B14202D14FF4806210E0B94202D14FF4C0
:1004500080420BE0594502D14FF4802206E07145FD
:1004600002D14FF4800201E04FF080622F49083939
:100470004A60C16A3BE04FF0020808FA0CF818EA3B
:10048000040F4FF000094FF0010235D05FEA837886
:1004900032D50B689B0605D40B6823F00A030B606A
:1004A00080F821200168A94201D1022219E05145BA
:1004B00001D1202215E0B14202D14FF4007210E0C8
:1004C000B94202D14FF400520BE0594502D14FF42A
:1004D000003206E0714502D14FF4001201E04FF006
:1004E0000072124908394A6080F82090816A002918
:1004F0001AD0BDE8F05F0847082505FA0CF525423B
:1005000012D01B0710D50B6823F00E030B6090F878
:100510004010C36B02FA01F15960826380F8212018
:1005200080F82090016BE2E7BDE8F09F08000240F0
:100530001C000240300002404400024058000240CB
:100540006C00024030B528B308C81349142219447E
:10055000B1FBF2F18900C163104981630221417747
:100560001A6843F6F0718A43D0E900142143D0E9B8
:1005700002452C4321430469214344692143846992
:100580002143114319600021416301224277017721
:10059000084630BD012030BDF8FFFDBF000002401D
:1005A00070B5044690F82000002501280CD00120E9
:1005B00084F8200094F821600020012E06D084F8F1
:1005C00020000225284670BD022070BD022684F856
:1005D0002160A0632068066826F0010606602046B8
:1005E000FFF7F8FDE06A00282068016802D041F0BA
:1005F0000E0106E021F0040101602068016841F06D
:100600000A0101602068016841F001010160D9E739
:1006100070B5044600F004F90546601C02D0044899
:100620000078044400F0FCF8401BA042FAD370BDEF
:100630001C0000202DE9F84FDFF8B8910024A9F143
:10064000040B23460F2709F1040AABF1040EC9E09D
:100650000125A5402A40AA427DD1674ED1F804C0A9
:10066000ACEB0608B44532D014DCBCF1030F3AD031
:1006700009DCBCF1000F2AD0BCF1010F1CD0BCF189
:10068000020F31D11DE0BCF1110F17D0BCF1120FD8
:100690002AD119E0B8F5881F19D006DCB8F5803FDB
:1006A00015D0B8F5801F1FD111E0B8F5001F0ED08E
:1006B000B8F5041F18D10AE0CB6815E0CB681B1D04
:1006C00012E0CB6808330FE0CB680C330CE08B688A
:1006D0002BB1012B4FF0080303D0456104E0042344
:1006E00002E0056100E00023FF2A01D8064601E090
:1006F00000F104064FEA840501D9A5F12005D6F8DA
:10070000008007FA05FC28EA0C0803FA05F548EA18
:100710000508C6F800804D68ED0062D5374DAE691A
:1007200046F00106AE61AD6924F0030605F001054F
:100730000095334D06EB050CDCF80850A607360F84
:1007400007FA06F825EA0805DFF8B880404503D126
:100750004FF0000817E044E0DFF8AC80404502D1DC
:100760004FF001080FE0DFF8A480404502D14FF0C0
:10077000020808E0DFF89880404502D14FF00308F6
:1007800001E04FF0040808FA06F848EA0508CCF83A
:1007900008804D68D9F80060ED024D4601D516433A
:1007A00000E096432E604D68DAF80060AD025546D1
:1007B00001D5164300E096432E604D68DBF80060DB
:1007C000AD035D4601D5164300E096432E604D68AB
:1007D000DEF80060ED03754601D5164300E0964350
:1007E0002E60641C0D682A46E5407FF431AFBDE8F9
:1007F000F88F0000080401400000111000100240B2
:100800000000014000080140000C014000100140C0
:10081000001401400AB1016170470904FBE70000C0
:1008200001488068704700001C0000200248816871
:1008300002781144816070471C000020074810B501
:10084000016841F010010160032000F075F80F20ED
:1008500000F006F800F024F8002010BD002002404F
:1008600070B50D4D04464FF47A712878B1FBF0F065
:100870000A490968B1FBF0F000F0DCFA48B9102C25
:1008800007D200222146501E00F036F800206C608E
:1008900070BD012070BD00001C0000202800002059
:1008A0000C4808B5816941F001018161816901F05D
:1008B00001010091C16941F08051C161C06900F03E
:1008C000805000900448416821F0E06141F00071DF
:1008D000416008BD0010024000000140002809DB13
:1008E00000F01F02012191404009800000F1E0204A
:1008F000C0F8001170470000F0B40E4B1B680C46A6
:10090000C3F30223C3F10705042D00D90425191DE3
:10091000072901D2002300E0DB1E012606FA05F1BB
:10092000491E214099409E40761E16403143F0BC3E
:1009300001F05EBB0CED00E0064900F0070208681C
:100940004FF6FF03184040EA0220034A10430860B4
:10095000704700000CED00E00000FA052DE9F047BB
:100960000F46050061D0434E306800F00700B842E2
:1009700009D2306820F0070038433060306800F05A
:100980000700B84251D128683B4C810712D5400777
:1009900003D5606840F4E06060602878000703D504
:1009A000606840F4605060606068A96820F0F00002
:1009B000084360602878C00728D06868012810D0F4
:1009C0002168022810D0890700292EDA616821F0F9
:1009D000030101436160FFF723FF804641F288393C
:1009E0000DE021688903EFE78901EDE7FFF718FFC4
:1009F000A0EB0801494502D90320BDE8F0876068F3
:100A0000696800F00C00B0EB810FEFD1306800F0A6
:100A10000700B8420BD9306820F007003843306037
:100A2000306800F00700B84201D00120E5E72878DF
:100A3000400705D56068E96820F4E060084360601D
:100A40002878000706D56068296920F4605040EADC
:100A5000C100606000F038F86168084AC1F3031112
:100A6000515CC8400649086006480068FFF7F8FE78
:100A70000020C2E700200240001002408623000848
:100A8000280000202000002004480549006849682B
:100A9000044AC1F30221515CC8407047280000207D
:100AA0000010024096230008044805490068496880
:100AB000044AC1F3C221515CC8407047280000209D
:100AC00000100240962300080E4A51680E4801F0BB
:100AD0000C03042B11D0082B0FD10C48C1F3834316
:100AE000C903C05C0AD55168084AC1F34041921E4F
:100AF000515C054A5043B0FBF1F07047044948434C
:100B0000704700000010024000127A0076230008AF
:100B100000093D002DE9F84F040070D02078C04D49
:100B2000C00749D06868C0F38100012807D0686811
:100B3000C0F38100022809D16868C00306D528687F
:100B4000800339D560680028E7D035E06068B0F5EB
:100B5000803F0BD010B1B0F5A02F11D0286820F441
:100B600080302860286820F4802002E0286840F463
:100B700080302860606890B1FFF752FE06460AE0B8
:100B8000286840F480202860F0E700BFFFF748FEA7
:100B9000801B642873D828688003F7D50CE0FFF722
:100BA0003FFE064605E000BFFFF73AFE801B6428C3
:100BB000F0D828688003F7D420789A4E80074FF049
:100BC00001094FF0000839D5686810F00C0F07D004
:100BD0006868C0F38100022809D16868C00306D4A0
:100BE0002868800714D52069012808D110E0206901
:100BF000B0B1C6F80090FFF713FE074605E00AE122
:100C0000FFF70EFEC01B0228C4D828688007F7D55E
:100C10002868616920F0F80040EAC10028600DE012
:100C2000C6F80080FFF7FCFD074604E0FFF7F8FD7B
:100C3000C01B022823D828688007F7D42078000733
:100C40002CD57948A169D9B1C0F80090FFF7E8FD2B
:100C5000074604E0FFF7E4FDC01B02280FD8686ACE
:100C60008007F7D571484FF4FA510068B0FBF1F0F6
:100C7000009000BF0098411E0091FAD20EE080E083
:100C8000C0F80080FFF7CCFD074604E0FFF7C8FD81
:100C9000C01B022875D8686A8007F7D420784007FF
:100CA00060D5E8690027C00008D4E86940F08050AA
:100CB000E861E869012700F0805000905C48016815
:100CC000C90513D40168834641F480710160FFF7C0
:100CD000A7FD824606E000BFFFF7A2FDA0EB0A00D9
:100CE00064284ED8DBF80000C005F5D5E06801287F
:100CF0000AD008B1052813D0286A20F00100286224
:100D0000286A20F0040002E0286A40F0010028620E
:100D1000E06841F2883B98B1FFF782FD82460BE024
:100D2000286A40F004002862EEE700BFFFF778FD74
:100D3000A0EB0A0159455AD8286A8007F6D50CE07D
:100D4000FFF76EFD824605E0FFF76AFDA0EB0A01A2
:100D500059454CD8286A8007F6D41FB1E86920F0BD
:100D60008050E861E06988B36968C1F381010229B4
:100D700044D00228C6F8608004D0FFF751FD044635
:100D800038E034E0FFF74CFD074604E0FFF748FD8C
:100D9000C01B02282BD828688001F7D4206AB0F540
:100DA000803F05D16868A16820F40030084368607E
:100DB000D4E908010843696821F4741108436860A4
:100DC000C6F86090FFF72CFD044606E025E000BF62
:100DD000FFF726FD001B022809D828688001F7D5F7
:100DE0001BE000BFFFF71CFD001B022802D90320F7
:100DF000BDE8F88F28688001F4D40EE00128F7D010
:100E00006868226A00F48031914204D1616A00F47A
:100E10007010884201D00120EAE70020E8E70000D6
:100E2000001002400000424280044242280000209C
:100E30000070004010B5401EB0F1807F01D301204A
:100E400010BD4FF0E02460610F21601701F0D0F871
:100E50000020A06107202061002010BD10B590F88F
:100E60003C20012A22D0012280F83C20CA688C68EC
:100E700022F4407222434C6822F4806222430C68C0
:100E800022F4006222430C6922F4805222434C690E
:100E900022F400522243C969002322F480420A430B
:100EA00001684A6480F83C30002010BD022010BD6B
:100EB00070B590F83C20012A26D0012480F83C40EF
:100EC000022280F83D2003685A689D6822F070066F
:100ED0000A6832435A600D4B02689A4208D0B2F158
:100EE000804F05D00A4B9A4202D00A4B9A4204D155
:100EF000496825F080031943916080F83D40002146
:100F000080F83C10084670BD022070BD002C0140E6
:100F1000000400400008004010B586B00021009198
:100F2000019102910391124C036812490222124866
:100F3000A34209D18B6943F004038B61896901F0F5
:100F40000401049181150BE0B3F1804F0ED18B6940
:100F500043F004038B61896901F0040104910121CC
:100F6000CDE9001269460392FFF764FB06B010BD9D
:100F7000002C0140001002400008014070B50446FA
:100F800090F83C0000260D4601280FD0012084F87F
:100F90003C006AB1042A1DD0082A2FD00C2A3FD069
:100FA0000126002084F83C00304670BD022070BD50
:100FB000206800F06FFD2068816941F008018161BF
:100FC0002068816921F004018161206881692A69B2
:100FD000114311E0206800F085FD2068816941F42B
:100FE000006181612068816921F4806181612068EC
:100FF00081692A6941EA02218161D2E7206800F013
:101000009DFD2068C16941F00801C1612068C16986
:1010100021F00401C1612068C1692A69114311E00E
:10102000206800F0B7FD2068C16941F40061C1612A
:101030002068C16921F48061C1612068C1692A69A1
:1010400041EA0221C161ACE710B5040003D094F875
:101050003D0010B107E0012010BD002084F83C00E5
:10106000204600F01FF8022084F83D00211D206872
:1010700000F0C6FC012084F8460084F83E0084F8A5
:101080003F0084F8400084F8410084F8420084F86E
:10109000430084F8440084F8450084F83D000020B3
:1010A00010BD000008B50C4A01680C48914207D1F8
:1010B000816941F400618161806900F4006009E0A8
:1010C000B1F1804F07D1C16941F00101C161C0692F
:1010D00000F00100009008BD002C0140001002400B
:1010E00010B50446022249B104290ED0082913D0B4
:1010F00094F84100012816D0012010BD94F83E005C
:101100000128F9D184F83E200FE094F83F0001282F
:10111000F2D184F83F2008E094F840000128EBD198
:1011200084F8402001E084F841200122206800F08A
:10113000A3FC0F492068884203D1426C42F400426C
:1011400042642068884208D0B0F1804F05D0094938
:10115000884202D00849884204D1816801F0070121
:10116000062903D0016841F001010160002010BD93
:10117000002C0140000400400008004038B504463F
:1011800090F84200202801D0022038BD51B14AB168
:101190000120206300206063204600F08FFE216B59
:1011A000012901D0012038BD21680A6849680091F1
:1011B00021680C3151E8002F42F0100241E8002371
:1011C000002BF5D138BD000010B50C4600680D4964
:1011D000884215D10CA000F0FBFE642322460D4985
:1011E0000D4800F00FFA21460CA000F0F1FEFFF7C9
:1011F00029F8BDE81040402206490C48FFF7BEBF61
:1012000010BD0000004400400A0A726563656976FB
:1012100065643A0030000020000100200A73697AFA
:10122000655F74203D3D2025690A000048010020CB
:1012300070470000F8B5016804460868CA684B6941
:1012400010F00F0F4FF0000559D003F0010602F423
:101250009077374365D0C10705D0D10503D5616CC0
:1012600041F001016164410705D5D90703D0616CE4
:1012700041F002016164810705D5D90703D0616C93
:1012800041F004016164010707D502F020013143F8
:1012900003D0616C41F008016164616C00293AD0AF
:1012A000800604D5900602D5204600F049FD20684E
:1012B0004069616CC0F38010090700D460B3204618
:1012C00000F009FD20684069400621D520681430EF
:1012D00050E8001F21F0400140E80012002AF5D13B
:1012E000E06BA8B16D494163E06BFFF735F800286A
:1012F00011D0E06B416B01B0BDE8F04008478306B8
:101300000FD593060DD52046BDE8F84000F018BD76
:101310002046FFF78DFFF8BD2046FFF789FF656483
:10132000F8BD266B2023012E7CD1C6067AD5D606C1
:1013300078D508684868009048694FF00206400672
:1013400040D5E16B086840680004000CE8D0A28D2D
:101350008242E5D9E085886920282DD020680C30AC
:1013600050E8001F21F4807140E80012002AF5D1F6
:101370002068143050E8001F21F0010140E80012FD
:10138000002AF5D12068143050E8001F21F04001F8
:1013900040E80012002AF5D184F842302563206825
:1013A0000C3050E8001F21F0100140E80012002A24
:1013B000F5D1E06BFEF7ACFF6663A08DE18D401ABE
:1013C00081B22AE0A08DE18D401A81B2E08D002823
:1013D000A6D00029A4D022680C3252E8000F20F4D5
:1013E000907042E80007002FF5D12068143050E8D3
:1013F000002F22F0010240E80027002FF5D184F8E9
:101400004230256320680C3050E8002F22F0100293
:1014100040E80023002BF5D166632046FFF7D4FE99
:10142000F8BDFFE705062BD5150629D594F8410030
:101430002128F5D1A068B0F5805F01D12069B0B155
:10144000206A411C2162216800784860E08C401EBF
:101450000004000CE084E3D12068C16821F0800121
:10146000C1602068C16841F04001C160D8E7206ACE
:101470000088C0F308004860206A801C2062E5E70D
:101480004006CDD55006CBD5CA68204622F0400292
:10149000CA6084F8413000F005F9C1E7D91B0008A3
:1014A00070B5040004D094F84100002510B106E0A6
:1014B000012070BD84F84050204600F023F824201D
:1014C00084F841002068C16821F40051C1602046C1
:1014D00000F098FC2068016921F4904101612068C6
:1014E000416921F02A0141612068C16841F400513D
:1014F000C1606564202084F8410084F8420065637F
:10150000002070BDF0B585B00024009401940294D1
:1015100003940646344F0368344902220320344DB5
:10152000BB4221D18B6943F480438B618B6903F407
:10153000804304938B6943F004038B6189690390B2
:1015400001F0040104911102CDE900126946284618
:10155000FFF770F82815CDE9000469462846029483
:10156000FFF768F805B0F0BD224FBB42FAD1CB6956
:1015700043F40033CB61CB6903F4003304938B69EC
:1015800043F004038B618969039001F00401049125
:101590000421CDE9001269462846FFF74BF80820E0
:1015A000CDE90004694628460294FFF743F8134D3D
:1015B0001148C5E900048020C5E902402C616C6136
:1015C000AC612846EC61FEF7BDFF08B1FEF738FEBE
:1015D000F5630022114626206E62FFF78DF9262062
:1015E000FFF77CF9BEE70000003801400010024020
:1015F00000080140004400406C00024090010020BF
:10160000704770472DE9F843044690F8410098462A
:1016100016460D46202802D00220BDE8F88385B189
:101620007EB100206064212084F84100FFF7F8F8C3
:10163000A6848146E684A0682027B0F5805F02D0AA
:1016400003E00120E9E7206910B12E4600250EE0F5
:1016500000260CE08021204600F078FCA8B9C6B135
:1016600016F8010B21684860E08C401EE084E08C95
:101670004B464FF00002CDF800800028EAD14FF031
:101680004001204600F062FC40B184F84170032024
:10169000C3E735F8020BC0F30800E3E784F84170B4
:1016A0000020BAE77047FEE7094808B5416941F0F4
:1016B000010141614069002200F0010000901146E3
:1016C0001020FFF719F9BDE808401020FFF706B910
:1016D000001002402DE9F04385B000242548009415
:1016E000019402940394816941F010018161816940
:1016F00001F010010491816941F02001816181694B
:1017000001F020010491816941F004018161816946
:1017100001F004010491816941F00801816180694F
:10172000DFF8548000F0080048F210050490002211
:1017300029464046FFF76EF8DFF840904FF46047C7
:10174000002239464846FFF765F800950226012534
:101750000396CDE9015469464046FEF76BFF0097BA
:101760000396CDE9015469464846FEF763FF05B08C
:10177000BDE8F0830010024000080140000C014069
:1017800010B592B000240F941C2108A81094FEF705
:10179000D2FC20216846FEF7CEFC20481E4901609D
:1017A0004721C0E901146421C0E903148021C0E984
:1017B0000541FFF749FC08B1FEF742FD0F940FA960
:1017C00016481094FFF774FB08B1FEF739FD60204E
:1017D000CDE908040A940B940C940D94002208A9F6
:1017E0000E480E94FFF7CAFB08B1FEF729FD0094DE
:1017F0004FF40050CDE904400294019403946946EB
:1018000006480794FFF72AFB08B1FEF719FD0348C5
:10181000FFF782FB12B010BD002C014070000020C9
:1018200010B58AB0002407941C2168460894FEF77E
:1018300082FC16484FF0804101604721C0E9011445
:101840006421C0E9031480218161FFF7FDFB08B129
:10185000FEF7F6FC079407A90C480894FFF728FB4D
:1018600008B1FEF7EDFC6020CDE9000402940022EF
:10187000694606480494FFF781FB08B1FEF7E0FCD7
:101880000248FFF749FB0AB010BD0000B800002075
:101890000C4810B50A4901604FF4E1314160002164
:1018A00081600C22C160C0E904128161C161FFF74F
:1018B000F7FD002803D0BDE81040FEF7C1BC10BD05
:1018C00000380140000100200C4810B50A490160B1
:1018D0004FF4E1314160002181600C22C160C0E918
:1018E00004128161C161FFF7DBFD002803D0BDE870
:1018F0001040FEF7A5BC10BD004400404801002088
:10190000FEE7000010B50122D1030548FEF782FF73
:10191000BDE8104000224FF400510248FEF77ABFA4
:1019200000080140000C014010B500224FF40041B6
:101930000448FEF76FFF0122BDE810405103024842
:10194000FEF768BF00080140000C014010B5074CCD
:1019500000224FF480412046FEF75CFF2046012222
:10196000BDE81040D103FEF755BF0000000C014058
:1019700010B5074C012291032046FEF74BFF20468D
:10198000BDE8104000224FF40041FEF743BF0000C5
:10199000000C0140FEE770477047FEF747BF30B5C7
:1019A0008FB028216846FEF7C6FB14210AA8FEF76F
:1019B000C2FB01210804CDE9001000240294022595
:1019C0000491CDE907504FF4E01009906846FFF705
:1019D000A1F808B172B6FEE70F20CDE90A054FF471
:1019E0008060CDE90C4002210AA80E94FEF7B6FFF4
:1019F000002801D072B6FEE70FB030BD704700007E
:101A0000F0B50268194B1A4C1A4D4FF080479842B6
:101A100005D0B84203D0A04201D0A84203D122F0A1
:101A200070064A683243984205D0B84203D0A042BB
:101A300001D0A84203D122F44074CA6822434C6901
:101A400022F08002224302608A68C2620A688262CF
:101A5000984201D109690163012141610169C90706
:101A600003D0016921F001010161F0BD002C0140AA
:101A7000000400400008004010B501F01F030121E0
:101A8000046A99408C430462016A9A4011430162DE
:101A900010BD000030B5036A026A22F00102026242
:101AA0004268846924F073050C682C4323F0020516
:101AB0008B682B430A4DA8420BD123F00805CB6855
:101AC00022F440722B434D6923F0040315438A69C5
:101AD0002A434260846149684163036230BD00006B
:101AE000002C014030B5026A036A23F01003036240
:101AF000436884690D6824F4E64444EA05248D684B
:101B000022F0200242EA05120B4DA8420ED1CD6808
:101B100022F0800242EA05124D6923F4406343EA51
:101B200085038D6922F0400243EA850343608461A6
:101B300049688163026230BD002C014030B5036A00
:101B4000026A22F4807202624268C46923F400735C
:101B500024F073050C682C438D6843EA05230C4D73
:101B6000A8420ED1CD6823F4006343EA05234D69F2
:101B700022F4405242EA05128D6923F4806342EA5E
:101B800005124260C4614968C163036230BD000050
:101B9000002C014030B5046A026A22F480520262CD
:101BA0004268C3690D6823F4E64343EA05238D6860
:101BB00024F4005444EA0534064DA84204D14D698A
:101BC00022F4804242EA85124260C361496801649E
:101BD000046230BD002C014010B5406A0021C1856F
:101BE000C184FFF725FB10BD70B5446A20684069C9
:101BF00094F84110C0F3C0100025212904D118B178
:101C0000E584204600F08EF82068406994F8421080
:101C1000C0F38010222904D118B1E585204600F0D8
:101C20005AF8606C40F0100060642046FFF700FB3B
:101C300070BD10B50146406A096809684FF000029E
:101C400089062ED4C28501680C3151E8003F23F487
:101C5000807341E80034002CF5D10168143151E85B
:101C6000003F23F0010341E80034002CF5D1016866
:101C7000143151E8003F23F0400341E80034002CC8
:101C8000F5D1202180F84210016B012909D10168AA
:101C90000C3151E8003F23F0100341E80034002CE0
:101CA000F5D14263016B012902D0FFF7A9FC10BDF9
:101CB000818DFFF789FA10BD10B5406A012141639B
:101CC000016B012902D0FFF79CFC10BD818D4908F2
:101CD000FFF77AFA10BD01680C3151E8002F22F4A9
:101CE000907241E80023002BF5D10168143151E8CE
:101CF000002F22F0010241E80023002BF5D1016BF7
:101D0000012909D101680C3151E8002F22F010029D
:101D100041E80023002BF5D1202180F8421000215A
:101D20000163704701680C3151E8002F22F0C002B6
:101D300041E80023002BF5D1202180F841107047A5
:101D400008B590F84210222901D0022008BD82680F
:101D50004FF480539A4201D1016921B1816A9A42BC
:101D60001BD04AB10AE00268816A5268C2F30802D5
:101D70000A80816A891C08E0026972B102685268AF
:101D800002F07F020A70816A491C8162C18D491E7E
:101D90000904090CC18503D01BE002685268F1E711
:101DA0000168CA6822F02002CA600168CA6822F489
:101DB0008072CA6001684A6922F001024A612021EA
:101DC00080F8421000214163026B012A03D0FFF723
:101DD00017FC002008BD016301680C3151E8002F99
:101DE00022F0100241E80023002BF5D101680A68B7
:101DF000D20602D50A6849680091818DFFF7E4F99F
:101E0000E7E7000070B5044600680169E26821F464
:101E10004051114301612169A06808436169084389
:101E20002168CA6841F20C639A430243CA60206881
:101E30004169A26921F44071114341611E49206842
:101E4000884202D1FEF730FE01E0FEF71DFE00EBF6
:101E5000C00101EB0012606864218000B2FBF0F366
:101E6000B3FBF1F36FF018067343B2FBF0F5B2FB6E
:101E7000F0F605EB8305322303EB0515B5FBF1F511
:101E8000B6FBF1F605F0F00505EB0615B2FBF0F632
:101E9000B2FBF0F0B0FBF1F06FF01802504306EB2C
:101EA000800003EB0010B0FBF1F0216800F00F00A0
:101EB0002844886070BD00000038014038B5816258
:101EC00004468285002013466064222284F8422062
:101ED000E56B1B4AAA62E56B1A4AEA62E56B1A4A8D
:101EE0002A63E26B50630A462168E06B091DFEF726
:101EF00057FB2068016840680090206948B120685D
:101F00000C3050E8001F41F4807140E80012002AB4
:101F1000F5D12068143050E8001F41F0010140E87D
:101F20000012002AF5D12068143050E8001F41F05B
:101F3000400140E80012002AF5D1002038BD000021
:101F4000331C0008B91C0008E91B00082DE9F84300
:101F5000984617460D460446089E24E0701C22D081
:101F6000FEF75EFCA0EB0800B0421AD8CEB12068A4
:101F7000C168490717D5802D15D0402D13D00168B1
:101F8000C94309070FD40168002540680090204626
:101F9000FFF7A1FE0820606484F840500120BDE8EE
:101FA000F8830320FBE72068006835EA000004D0CE
:101FB0000020B842D2D00020F1E70120F9E700006C
:101FC0000148FFF737B9000048010020FEE7000094
:101FD0000FB4054B10B503A9044A029800F028F885
:101FE00010BC5DF814FB0000852100082C000020C7
:101FF0000907090E002804DB00F1E02080F8001436
:10200000704700F00F0000F1E02080F8141D7047C9
:1020100002E008C8121F08C1002AFAD170477047B1
:10202000002001E001C1121F002AFBD1704700000F
:102030002DE9FF4F89B09B460446002506E0252880
:102040000BD05A460B999047641C6D1C20780028D1
:10205000F5D10DB02846BDE8F08F0027B846012223
:10206000474900E0074314F8013F203B02FA03F020
:102070000842F7D120782E2819D114F8010F47F023
:1020800004072A280ED06FF02F022078A0F130012B
:1020900009290CD808EB880102EB410100EB01088B
:1020A000641CF2E70A98641C50F8048B0A902078AC
:1020B0000028CED0642808D0692806D075281ED004
:1020C0005A460B9990476D1C58E00A994FF00A093F
:1020D00001C90A91002802DA40422D2102E03905A7
:1020E00004D52B218DF82010012103E0F90704D03D
:1020F0002021F7E78A4608AE0DE00021FAE70A99A9
:102100004FF00A0901C90A91F7E74946FEF732F88C
:10211000303106F8011D0028F7D1ADEB060000F1C3
:102120002009780701D44FF00108C84502DDA8EB6B
:10213000090000E000208046002706E008A85A4673
:10214000C05D0B9990476D1C7F1C5745F6DB04E082
:1021500030205A460B9990476D1CB8F10001A8F148
:102160000108F5DC05E016F8010B5A460B9990477B
:102170006D1CB9F10001A9F10109F4DC641C65E7EB
:102180000928010013B54FF0FF33012269460248C8
:10219000FFF738FA00981CBD00010020FEF74EFB47
:1021A000FFF7FDFBFFF796FAFFF77EFAFFF7E8FA75
:1021B000FFF78AFBFFF76CFBFFF732FBFEF720F817
:1021C000402249494948FEF7D9FF00214848FEF717
:1021D00087FF00214748FEF783FF454E454FDFF854
:1021E0001881464C0125A0780028FCD16078413840
:1021F000072823D2DFE800F0040B243A434C6200A6
:10220000002210214046FEF705FB3DA014E000220D
:1022100010214046FEF7FEFA306894F90010416341
:1022200038684163FFF780FBFFF7A2FB0122102112
:102230004046FEF7EFFA35A0FFF7CAFEA570D2E7D9
:10224000002210214046FEF7E5FA316894F90000BB
:10225000486339684863FFF755FBFFF777FB0122B6
:1022600010214046FEF7D6FA2BA0E5E794F90000CE
:10227000316800EBD070401048632AA0DCE794F985
:102280000000396800EBD070401048632AA0D3E703
:10229000002210214046FEF7BDFA306894F9001084
:1022A000416338684163FFF72DFBFFF761FB0122B3
:1022B00010214046FEF7AEFA24A0BDE7002210210F
:1022C0004046FEF7A7FA306894F900104163386879
:1022D0004163FFF729FBFFF739FB0122102140463C
:1022E000FEF798FA1EA0A7E7300000204801002062
:1022F00070000020B800002000080140000000200D
:1023000053544154455F53544F500A005354415461
:10231000455F4D4F56450A0053544154455F424175
:10232000434B0A0053544154455F5455524E5F4C41
:102330004546540A0000000053544154455F54552B
:10234000524E5F52494748540A00000053544154CA
:10235000455F524F544154455F4C4546540A000076
:1023600053544154455F524F544154455F5249477D
:1023700048540A00010202030405060708090A0B73
:102380000C0D0E0F101000000000000000000102F4
:10239000030406070809000000000102030400000E
:1023A00041542B43495053544152543D22554450BB
:1023B000222C223139322E3136382E342E31222C35
:1023C000383038302C383038302C300D0A000000CE
:1023D00041542B4349504D55583D300D0A000000E3
:1023E00041542B43574D4F44453D320D0A000000E8
:1023F00041542B43575341503D224361725F41503A
:1024000032222C223132333435363738222C312CDB
:10241000330D0A0041542B5253540D0A00000000A2
:1024200040240008000000203000000010200008B8
:102430007024000830000020A805000020200008BB
:1024400000410100E023000814240008F0230008E4
:10245000D0230008A02300080000000001000000B5
:10246000100000000000000000127A0000000000D0
:04000005080000ED02
:00000001FF
